:100000000C9491010C94A3010C94A3010C94CF01C6
:100010000C94AD170C94A3010C94A3010C94A301B0
:100020000C94A3010C94A3010C94A3010C94AA209A
:100030000C94A3010C94A3010C94A3010C94A301B0
:100040000C94CA1F0C94A3010C9452270C94D4272F
:100050000C94A3010C94A3010C94A3010C94A30190
:100060000C94A3010C94A301C030C630C930CC302D
:10007000D130D930E1307C317C317C31EE30F1301F
:10008000FA3003317C317C317C317C317C317C3104
:100090000F31193125312D3130313931423148316B
:1000A0007C317C3151315A316531A2044410441005
:1000B000AC04B904C604D3044410D7044410E504C6
:1000C0004410EF04F90403054410441044101305D0
:1000D00020052D0588278A27C327C327C327C327C1
:1000E000C327C327C327C327C327C3279027922724
:1000F0009427962798279A279C279E27C327A227CD
:10010000A427A627A827AA27AC27C327AE27084AD3
:10011000D73B3BCE016E84BCBFFDC12F3D6C74311B
:100120009ABD56833DDA3D00C77F11BED9E4BB4C72
:100130003E916BAAAABE000000803F05A84CCDB23C
:10014000D44EB93836A9020C50B9918688083CA61D
:10015000AAAA2ABE000000803F000D0A4772626C06
:1001600020312E3166205B27242720666F7220689D
:10017000656C705D0D0A00244E005B4F50543A00D0
:100180005B5645523A312E31662E3230313730319E
:1001900033313A005B544C4F3A005B4739323A00F6
:1001A0003330003238005B4700204700204D0020EC
:1001B000530020460020540033382E005B47433A5A
:1001C00047005B484C503A24242024232024472015
:1001D000244920244E2024783D76616C20244E78DA
:1001E0003D6C696E6520244A3D6C696E6520245320
:1001F0004C50202443202458202448207E202120B5
:100200003F206374726C2D785D0D0A00536C656538
:1002100070696E6700526573746F72696E672073E0
:1002200070696E646C6500526573746F72696E6795
:100230002064656661756C74730050676D20456E4F
:100240006400436865636B204C696D697473004397
:100250006865636B20446F6F720044697361626C00
:10026000656400456E61626C656400436175746924
:100270006F6E3A20556E6C6F636B6564002724487F
:10028000277C2724582720746F20756E6C6F636B52
:1002900000526573657420746F20636F6E74696EAD
:1002A0007565005B4D53473A00414C41524D3A0051
:1002B0007C413A007C4F763A007C57434F3A007CB1
:1002C000506E3A007C46533A007C42663A007C57B6
:1002D000506F733A007C4D506F733A00536C6565F4
:1002E0007000446F6F723A00436865636B00416C45
:1002F00061726D00486F6D65004A6F6700486F6CF2
:10030000643A0052756E0049646C65006F6B0D0AAB
:10031000000D0A005B5052423A006572726F723AE9
:10032000000011241FBECFEFD8E0DEBFCDBF27E015
:10033000A0E0B1E001C01D92A936B207E1F70E942A
:10034000532C0C943A3B0C940000EBE6F0E08081D7
:10035000897E8083E8E6F0E080818E7F8083089547
:1003600084B1897E84B985B1866185B98091700137
:1003700083FF0BC080916B00866180936B0080913E
:10038000680081608093680008950C94A501F99934
:10039000FECF92BD81BD81E08FBB80B508951F92D5
:1003A0000F920FB60F9211242F933F934F935F93A9
:1003B0006F937F938F939F93AF93BF93EF93FF932D
:1003C00080911A01813049F080916E05811105C03C
:1003D0000E94B82581E00E943D17FF91EF91BF91E7
:1003E000AF919F918F917F916F915F914F913F91CD
:1003F0002F910F900FBE0F901F90189593B196718B
:100400008091700186FD02C086E19827992349F00A
:1004100091FB882780F992FD8260907119F08460C9
:10042000089580E0089561E071E088E991E00C941E
:1004300056178F929F92AF92BF92CF92DF92EF9218
:10044000FF920F931F93CF934B017A016C01C40E5F
:10045000D51E8C01C0E05B01A81AB90AC501800F46
:10046000911F0C151D0599F00E94C701C11108C00C
:100470002C2FCC0F330B232F221F2227221F01C02A
:1004800021E0C22FC80FF80181938F01E7CFC4018B
:100490008E0D9F1D0E94C70121E030E0C81711F0AA
:1004A00020E030E0C901CF911F910F91FF90EF90B4
:1004B000DF90CF90BF90AF909F908F900895F89469
:1004C000F999FECF92BD81BD81E08FBB80B58627B3
:1004D000482F082E000C550B262F30E024233523FF
:1004E000232B39F06F3F19F060BD84E006C084E132
:1004F00004C0882321F060BD84E28FBBF99A789410
:1005000008958F929F92AF92BF92CF92DF92EF9217
:10051000FF920F931F93CF937C014A016B01C40E8E
:10052000D51E8B01C0E05C01A61AB70AC8018A0D6E
:100530009B1D0C151D0599F0C11108C02C2FCC0F67
:10054000330B232F221F2227221F01C021E0F80195
:1005500061918F01C22FC60F0E945F02E7CF6C2FFF
:10056000C701880D991DCF911F910F91FF90EF90BA
:10057000DF90CF90BF90AF909F908F900C945F02D0
:1005800090911B01911108C0811102C0439802C0D3
:1005900086FD439A1092250108952F923F924F9223
:1005A0005F926F927F928F929F92AF92BF92CF9203
:1005B000DF92EF92FF920F931F93CF93DF93CDB70C
:1005C000DEB7CA54D1090FB6F894DEBF0FBECDBF57
:1005D0008AE3E0ECF1E0DF011D928A95E9F78BE018
:1005E000E0E8F1E0A1ECB1E001900D928A95E1F72D
:1005F00080911907843211F00C94681081E0809387
:10060000C1011092C20183E08A8FB1E0BBA3212C0B
:10061000312C18AA1FA6C12C1B8E1F8EDD24D3944B
:100620006AE0A62EB12C0EE571E6872E73E0972EB8
:100630008A8DE82FF0E0E75EF84FE080EE2009F4C5
:100640003EC29FEB9E0D9A3110F00C9434108F5FD8
:100650008A8FBE016A5E7F4FCE014A960E94A8290A
:10066000882311F40C9436104E885F88688C798C3E
:10067000C301B2010E94A53A0E94E337162F70E031
:1006800080E090E00E9414389B01AC01C301B201EC
:100690000E946A3620E030E048EC52E40E94C23901
:1006A0000E942F3A0E94E337CB01E7E4EE1629F0CF
:1006B000FDE4EF1609F4EAC034C1183209F4C5C0EC
:1006C00020F5143168F4113108F08AC0143009F4AF
:1006D00052C008F464C01A3009F445C00C944410A8
:1006E0001C3109F440C050F4163110F00C94441041
:1006F00025E1211B2093C30126E0ACC01E3199F1F6
:10070000163209F44CC00C9444101D3309F497C000
:10071000A8F4153381F140F41B3209F47AC0113387
:1007200009F477C00C9444101C3310F00C9444105E
:100730006AEC610F6093C70129E08CC01C3538F466
:100740001A3508F053C0103581F10C9444101C3553
:1007500051F01F3510F00C944410202F211B2093D2
:10076000C20125E077C0009731F42F8D21110C9440
:10077000381031E03F8F1093C001212F2D7F2C3195
:1007800019F01C3509F063C0009721F00A9711F0A9
:100790000C944410610F6093C00120E060C06F8D25
:1007A00061110C943810A2E0AF8F1093C101163282
:1007B00009F04FC08431910559F08E31910541F017
:1007C0008832910529F08233910511F00C94441080
:1007D000B5010E94D73A66576093C10121E03FC03E
:1007E0006FEE610F6093C50122E034C0892B31F4B4
:1007F00066EA610F6093C40123E031C06A3071057D
:1008000011F00C9444101A3511F40C94441024E0A7
:1008100026C0BF8DB1110C943810113331F41092F1
:10082000C60128E0E3E0EF8F1AC00A9711F00C949C
:100830004410D092C60128E0F3E0FF8F10C0892B4E
:1008400011F00C9444102AE00AC027E003C020E015
:1008500001C021E0892B19F087E10C946C1081E034
:1008600090E002C0880F991F2A95E2F72FA538A9BA
:1008700028233923232B19F085E10C946C102FA524
:1008800038A9282B392B38AB2FA7D2CE892B21F7AB
:10089000163018F4133058F016C0183010F40C94B9
:1008A00044101A30F0F01E3159F00C94441011230A
:1008B00019F0113001F104C033E03093C8011BC0BE
:1008C0001093C80118C0143021F0153031F080E1C8
:1008D00001C080E28093CA0102C01092CA018CE07C
:1008E0000BC0193021F080E48093C90102C010923E
:1008F000C9018DE001C08BE0A1E0B0E002C0AA0F09
:10090000BB1F8A95E2F72FA538A92A233B23232B67
:1009100009F0B2CFEFA5F8A9EA2BFB2BF8ABEFA7B4
:1009200087CE8E2DEE0C990BAA0BBB0BFC01E65467
:10093000F109E531F10510F00C944410EB5AFF4F2A
:100940000C940D3B4092CC015092CD016092CE01AF
:100950007092CF0180E08DC04092D0015092D101C1
:100960006092D2017092D301FC2DF160CF2E81E014
:1009700080C04092D4015092D5016092D60170920D
:10098000D7012C2D2260C22E82E073C04092D80184
:100990005092D9016092DA017092DB013C2D3460F3
:1009A000C32E83E066C01093DC0184E062C0C30103
:1009B000B2010E94DC376093DD017093DE01809309
:1009C000DF019093E00185E054C04092E101509234
:1009D000E2016092E3017092E40186E04AC0409235
:1009E000E5015092E6016092E7017092E80187E02C
:1009F00040C04092E9015092EA016092EB0170928E
:100A0000EC0188E036C020E030E04FE753E4C3015A
:100A1000B2010E948239181614F40C943A10109303
:100A2000ED0189E026C04092EE015092EF01609204
:100A3000F0017092F1016B8D61606B8F8AE019C0DB
:100A40004092F2015092F3016092F4017092F5012C
:100A50008B8D82608B8F8BE00CC04092F6015092A0
:100A6000F7016092F8017092F9019B8D94609B8F61
:100A70008CE0EE24E394F12C082E02C0EE0CFF1C57
:100A80000A94E2F7970122213321232B11F00C94D1
:100A90003C10D40102C0B595A7958A95E2F7A0FF56
:100AA0000BC020E030E0A901C301B2010E94603711
:100AB00087FF02C00C943E102E283F28B9CDBB8D75
:100AC000BB2329F0EF8DE11102C0F2E0FF8F25FE7C
:100AD0000FC08091DD019091DE01A091DF01B09106
:100AE000E00181389649A849B10514F00C944010F2
:100AF0003BA1332301F120FC02C00C944A108091E9
:100B0000C301813009F03FC023E333E34BEC51E4F0
:100B10006091CC017091CD018091CE019091CF0177
:100B20000E94C2396093CC017093CD018093CE01B5
:100B30009093CF0128C08091C201813071F46F8DF4
:100B4000623009F58091C1018035E9F08823D9F040
:100B500020FC02C00C944A1016C0809181018111C2
:100B600012C020FCCCCF80918F0190919001A09178
:100B70009101B09192018093CC019093CD01A0930B
:100B8000CE01B093CF0130FC10C080918B019091C9
:100B90008C01A0918D01B0918E018093E901909319
:100BA000EA01A093EB01B093EC018091C001843085
:100BB00039F426FC03C08CE10C946C10E89426F800
:100BC0008091C501882369F0813029F48BAF1DAA7B
:100BD00092E09BAB0BC01BAEA2E0ADABB1E0BBABF8
:100BE00005C0E2E0EBAFF1E0FDAB1BAA8091C301D1
:100BF000813021F02F8D2330A9F52BC04EEEE42E4D
:100C000041E0F42E00E010E03B8DA32EB12CC50195
:100C1000002E02C0959587950A94E2F780FF10C0D8
:100C200023E333E34BEC51E4D7016D917D918D913A
:100C30009C910E94C239F701608371838283938300
:100C40000F5F1F4FF4E0EF0EF11C03301105F9F6B2
:100C5000D1CF8091C601813029F42B8D243011F041
:100C60000C9442108CE0E4EAF1E0DE011196019070
:100C70000D928A95E1F78FA598A991FD09C09091F1
:100C8000C0019FA39A30C9F09C3509F4AFC010C1D0
:100C90008091C701873018F08DE10C946C10909111
:100CA0008601981761F3BE016F5F7F4F0E94022695
:100CB000882311F40C945810E2CFAB8DA11103C01E
:100CC0008AE10C946C10C10180759927892B09F475
:100CD00072CF6091E1017091E2018091E301909106
:100CE000E4010E94A53A0E94E3376730A8F680919C
:100CF000DC01843141F0823011F00C94441027FE65
:100D000002C00C944410BFEA2B22662319F06150F4
:100D10006DA703C0E091C701EDA760ED71E08DA55F
:100D20000E940226882311F40C945810D090DC0104
:100D30004090BC015090BD016090BE017090BF0119
:100D400000ED11E038E9A32E31E0B32EE12CF12CB7
:100D5000FB8D8F2E912CC4010E2C02C0959587958A
:100D60000A94E2F780FF34C024E1D21228C0D501F2
:100D700058962D913D914D915C915B976D917D9130
:100D80008D919C910E946A36F801268D378D40A185
:100D900051A10E946A36D8016D937D938D939C93E7
:100DA0001397B2E0EB16F10499F4A30192010E94AB
:100DB0006A36F801608371838283938309C0F801E6
:100DC000868D978DA0A1B1A180839183A283B383E7
:100DD000FFEFEF1AFF0A0C5F1F4F24E0A20EB11CB9
:100DE00033E0E316F10409F0B6CF2FC16B8D662313
:100DF00009F466CF4090BC015090BD016090BE01E7
:100E00007090BF010EEE11E0A12CB12CE12CF12C61
:100E1000862E912CF501E058FE4FC4010E2C02C025
:100E2000959587950A94E2F780FF2BC0A1E0B0E08A
:100E3000AC0FBD1FAA0DBB1D2D913D914D915C9135
:100E4000608D718D828D938D0E946A36D8012D91AF
:100E50003D914D915C910E946A36F80160837183E7
:100E600082839383F2E0EF16F104A1F4A3019201CF
:100E70000E946A36D8016D937D938D939C9313974E
:100E800009C080A991A9A2A9B3A9F801808391837F
:100E9000A283B383FFEFEF1AFF0A24E0A20EB11C76
:100EA0000C5F1F4F33E0E316F10409F0B3CFCCC061
:100EB0006F8D633071F48FA18E3109F48BC085334F
:100EC00009F4BCC08C3109F0BFC060ED71E086E070
:100ED00084C09B8D992379F3D090C4014090BC01CC
:100EE0005090BD016090BE017090BF0128E9A22E14
:100EF00021E0B22E0EEE11E0DE0111964D01E12C43
:100F0000F12CE92FF0E0FEA7EDA78DA59EA50E2CF4
:100F100002C0959587950A94E2F780FD0BC0F50114
:100F200080819181A281B381F80180839183A28322
:100F3000B3833FC0FFA1F533E1F1D11029C0D50142
:100F400058962D913D914D915C915B97F401608194
:100F50007181828193810E946B36D8012D913D91E0
:100F60004D915C910E946B36F8016083718382839E
:100F70009383F2E0EF16F104E1F4A30192010E94E1
:100F80006B36D8016D937D938D939C93139711C00D
:100F9000F5012081318142815381D8016D917D918C
:100FA0008D919C910E946B36F801608371838283DE
:100FB0009383FFEFEF1AFF0A24E0A20EB11C0C5F2F
:100FC0001F4F34E0830E911C63E0E616F10409F034
:100FD0009CCF71CF60ED71E087E00E9402268823EC
:100FE00011F40C9458108B8D811103C01DA61F8E17
:100FF0002CC020E030E080E090E0AB8D4A2F50E044
:10100000BA01082E02C0759567950A94E2F760FD53
:101010000EC0F901E058FE4F808C918CA28CB38CED
:10102000F901E054FE4F808A918AA28AB38A019620
:101030002C5F3F4F8330910519F706C08091C101A5
:10104000823010F00C9446101DA6B091C101BFA3D0
:10105000B03529F4EB8DE1110C94481074C2FF8D6A
:10106000F23009F070C22FA1211104C03B8D311163
:101070006AC22BC020E030E0A9016091CC017091E0
:10108000CD018091CE019091CF010E9460378823DD
:1010900011F40C944A106FA16C3809F43EC240F46C
:1010A0006230A9F06330B1F0613009F04CC20AC07F
:1010B0008FA18E3809F431C208F42CC28F3809F49C
:1010C00029C241C29B8D91113EC21F8E3CC2ABA171
:1010D000A460ABA3BB8DBB2309F4F2CDEBA90E2F0B
:1010E00010E03DA9232F30E03AA729A781E090E046
:1010F0007C010DA802C0EE0CFF1C0A94E2F702C0AE
:10110000880F991FEA95E2F7E82AF92A8B2F90E0D9
:101110008E219F21892B09F4BFC7F801EE0FFF1F15
:10112000EE0FFF1FE054FE4FD801AA0FBB1FAA0FFE
:10113000BB1FA856BE4F2D913D914D915C9166A568
:1011400077A580A991A90E946A364B015C01E9A5A7
:10115000FAA5EE0FFF1FEE0FFF1FE054FE4FA9A5EB
:10116000BAA5AA0FBB1FAA0FBB1FA856BE4F2D9131
:101170003D914D915C9166A577A580A991A90E94AA
:101180006A366FAB78AF89AF9AAF310160E86622FB
:10119000772427FEEFC0E89427F84CE050E06EEE8D
:1011A00071E088E991E00E942D3B892B11F481E2E6
:1011B00093C78091C3018130B1F423E333E34BEC57
:1011C00051E46091E5017091E6018091E701909111
:1011D000E8010E94C2396093E5017093E6018093B3
:1011E000E7019093E8014090E5015090E60160909E
:1011F000E7017090E801A5019401C501B4010E94C6
:10120000C23923966CAF7DAF8EAF9FAF23972FA9C6
:1012100038AD49AD5AADCA01B9010E94C23927960D
:101220006CAF7DAF8EAF9FAF279720E030E040E8F6
:1012300050E4C301B2010E94C239A30192010E948D
:10124000C23923962CAD3DAD4EAD5FAD23970E94C4
:101250006A3627962CAD3DAD4EAD5FAD27970E9407
:101260006A366B017C0120E030E0A9010E94603702
:1012700087FD14C7C701B6010E94613A6B017C016A
:1012800027962CAD3DAD4EAD5FAD279723966CAD47
:101290007DAD8EAD9FAD23970E946B360E94613A63
:1012A0009B01AC01C701B60190580E946A376B01DF
:1012B0007C018FA1833021F4F7FAF094F7F8F094D1
:1012C00020E030E0A901C301B2010E94603787FF2E
:1012D0000FC0F7FAF094F7F8F094D301C201B058B8
:1012E0008093E5019093E601A093E701B093E801B4
:1012F000000F111F000F111F00531E4FA701960171
:101300006FA978AD89AD9AAD0E94C2399B01AC013D
:10131000C501B4010E946A3620E030E040E05FE39E
:101320000E94C239D8016D937D938D939C9313973E
:1013300009A51AA5000F111F000F111F00531E4F02
:10134000A7019601C501B4010E94C2399B01AC01FD
:101350006FA978AD89AD9AAD0E946B3620E030E080
:1013600040E05FE30E94C239F801608371838283A9
:101370009383E9C0D12CEC20FD20EF2809F490C61E
:10138000F1EF2F228091C301813009F47CC0F80174
:10139000EE0FFF1FEE0FFF1FE053FE4FC080D18006
:1013A000E280F380A7019601C501B4010E946A366C
:1013B0002B013C01E9A5FAA5EE0FFF1FEE0FFF1F61
:1013C000E053FE4F80819181A281B38189A79AA7C2
:1013D000ABA7BCA79C01AD016FA978AD89AD9AAD53
:1013E0000E946A364B015C01A3019201C301B20164
:1013F0000E94C2392B013C01A5019401C501B40131
:101400000E94C2399B01AC01C301B2010E946B363C
:101410000E94613A4B015C01A7019601C701B60128
:101420000E94C2396B017C0129A53AA54BA55CA598
:10143000CA01B9010E94C2399B01AC01C701B601C2
:101440000E946B360E94613A6B017C016093E5015A
:101450007093E6018093E7019093E8019B01AC0152
:10146000C501B4010E946A364B015C01E894B7F8EB
:101470002AE037ED43EA5BE3C501B4010E948239FB
:1014800018165CF160C090ECE92E91E0F92EC601CF
:10149000062C02C0959587950A94E2F780FF12C04A
:1014A00023E333E34BEC51E4D70150966D917D91EA
:1014B0008D919C9153970E94C239F701608B718B7B
:1014C000828B938BFFEF6F1A7F0A24E0E20EF11CF0
:1014D00033E063167104D9F65ACF20E030E040E0E3
:1014E0005FE3C501B4010E94823918160CF45FCE87
:1014F0002FE632E143E85AE3C701B6010E94C23940
:101500009B01AC01C501B4010E94823918160CF48C
:101510004ECE19C06BA160616BA38FA18E58823033
:1015200018F48BA188608BA39B8D992309F4C8CBF9
:101530004CE050E06EEE71E088E991E00E942D3BB6
:10154000892B09F434CE2BA12170ABA1C101A0FFDE
:1015500002C08E7D02C08E7D9C7FBF8DB111937EB7
:10156000892B09F09FC58E01035F1F4F89E0F801A9
:1015700011928A95E9F7222309F44BC08FA598A907
:10158000867B892B09F090C58091C001853311F0CD
:1015900081118AC580918B0190918C01A0918D0160
:1015A000B0918E01898B9A8BAB8BBC8B909189010A
:1015B00080918801892B4091CC015091CD0160919F
:1015C000CE017091CF014D875E876F87788B8460E5
:1015D0008D8B8091700185FF06C08EEE91E00E9498
:1015E000DC31811163C5B8018EEE91E00E94EF35C8
:1015F00080911A0181115EC50E941B24892B09F478
:1016000059C580E280931A010E94E5170E94492083
:1016100051C580917001F090890181FF26C09FA182
:101620009150933018F0FBA1F064FBA32B8D222383
:1016300039F03F8D323021F46BA160686BA315C087
:1016400080E1F81212C09091800191508BA18074BA
:10165000933030F4882349F09BA190629BA305C08E
:10166000811103C0ABA1A062ABA38091DD01909179
:10167000DE01A091DF01B091E0018093940190938D
:101680009501A0939601B09397018091C201809338
:101690008101882311F088E08D8B8091CC0190919D
:1016A000CD01A091CE01B091CF0180938F01909395
:1016B0009001A0939101B09392018D879E87AF878F
:1016C000B88B8090E9019090EA01A090EB01B09076
:1016D000EC01A501940160918B0170918C018091C6
:1016E0008D0190918E010E946037BBA1B074EB2EEA
:1016F000811103C0EBA1E5FF20C0FF2071F0FBA129
:10170000F7FD0BC0EE2021F040E050E0BA0102C02E
:10171000B501A4018F2D0E941C328091E9019091A6
:10172000EA01A091EB01B091EC0180938B019093C1
:101730008C01A0938D01B0938E01E1100CC08091BB
:101740008B0190918C01A0918D01B0918E01898BBC
:101750009A8BAB8BBC8B8091ED0180939301809130
:10176000CA0190918901981751F049895A896B896A
:101770007C890E941C328091CA01809389019D89D5
:1017800080918901892B8D8B8091C901909188016D
:101790009817D1F090911A01923051F02B968FAF9B
:1017A0002B970E947D162B968FAD2B970E94C0021F
:1017B0008091C901811103C01092880105C09091E8
:1017C0008801892B809388019D8980918801892BCC
:1017D0008D8B8091C001843049F56091E101709159
:1017E000E2018091E3019091E40120911A012230FD
:1017F000E9F028966FAF289729967FAF29972B9607
:101800008FAF2B972A969FAF2A970E947D1640E0B4
:1018100028966FAD289729967FAD29972B968FAD87
:101820002B972A969FAD2A970E9487258091C50104
:10183000809384018091C301809382012F8D233096
:1018400071F58091C60180938501811108C01092C5
:10185000F6011092F7011092F8011092F901C09070
:10186000F601D090F701E090F801F090F901A7019E
:1018700096016091BC017091BD018091BE01909173
:10188000BF010E946037882351F0C092BC01D09202
:10189000BD01E092BE01F092BF010E94173280911B
:1018A000C70190918601981769F0809386018CE0BA
:1018B000FE013196A4EAB1E001900D928A95E1F71C
:1018C0000E9417328091C401809383018091C001EE
:1018D0008632F1F138F48C3109F18E31F9F08A3029
:1018E00069F04FC08C35D1F1863609F441C0883299
:1018F00009F047C068E971E087E02DC060ED71E054
:101900008DA50E94E625809186013DA5831339C0EF
:101910008CE0E0EDF1E0A4EAB1E025C08D898160C2
:101920008D8B6F8D662329F0B8018EEE91E00E94B9
:10193000EF35B80180ED91E00E94EF358CE0E0EDED
:10194000F1E0A8E9B1E001900D928A95E1F719C0A4
:1019500068E971E086E00E94E62513C08CE0EEEEB7
:10196000F1E0A0EBB1E001900D928A95E1F707C09C
:101970008CE0E0EBF1E0DF011D928A95E9F70E942F
:1019800017328091C10180938001803509F41EC314
:10199000BF8DB23009F01AC3813021F4BE01635FFC
:1019A0007F4F06C0811109C08D8981608D8BB80180
:1019B0008EEE91E00E94EF3500C38250823008F035
:1019C00095C28091E5019091E601A091E701B09167
:1019D000E8018F8F98A3A9A3BAA3ABA994E0A99F0C
:1019E00070011124F701E856FE4FF8A7EFA3970105
:1019F00020533E4F3EA72DA7D9014D905D906D908D
:101A00007C902081318142815381C301B2010E94C7
:101A10006B366FA778AB89AB9AABEDA9B4E0EB9FBF
:101A200080011124980128563E4F3CAB2BABC801D6
:101A300080539E4F9EAB8DABDC018D909D90AD9001
:101A4000BC90F9012081318142815381C501B401EB
:101A50000E946B366FAB78AF89AF9AAF77FA70940C
:101A600077F87094D501C401B0588B8F9C8FAD8FDF
:101A7000BE8FF701E251FE4F2FA538A949A95AA9F7
:101A800060817181828193810E946A366B017C0141
:101A9000F801E251FE4F2FA938AD49AD5AAD608132
:101AA0007181828193810E946A364B015C01A7019A
:101AB0009601C301B2010E94C23969A77AA78BA718
:101AC0009CA7A50194016B8D7C8D8D8D9E8D0E94B0
:101AD000C2399B01AC0169A57AA58BA59CA50E9482
:101AE0006B3669A77AA78BA79CA7A5019401C301B0
:101AF000B2010E94C2394B015C01A70196016B8DB6
:101B00007C8D8D8D9E8D0E94C2399B01AC01C501DB
:101B1000B4010E946A3629A53AA54BA55CA50E948E
:101B2000EA366B017C019BA192FF13C02DEB37E3DA
:101B300046E055EBC701B6010E94823987FD1DC002
:101B40002BED3FE049EC50E4C701B6010E946A3634
:101B500012C02DEB37E346E055E3C701B6010E9402
:101B60006037181654F02BED3FE049EC50E4C70104
:101B7000B6010E946B366B017C01809064019090ED
:101B80006501A0906601B09067012F8D38A149A131
:101B90005AA1CA01B9010E946B36A50194010E94A5
:101BA0006A369B01AC01C501B4010E94C2390E9492
:101BB000613A4B015C0120E030E040E05FE3C701A7
:101BC000B6010E94C2392F8D38A149A15AA10E94A5
:101BD000C2399F77A50194010E946A370E944F384D
:101BE0000E94E3377AA769A7DB01AB2B09F4D6CEB5
:101BF0001D894B01A12CB12C13FF12C0C501B401EA
:101C00000E9412389B01AC016D857E858F85988975
:101C10000E94C2396D877E878F87988B177F1D8BB7
:101C2000C501B4010E9412384B015C019B01AC015B
:101C3000C701B6010E946A376BA37CA38DA39EA344
:101C4000EBADB4E0EB9FC00111248C0108561E4F90
:101C5000FC01E251FE4FD8012D913D914D915C91D7
:101C600060817181828193810E946A36A50194010D
:101C70000E946A3727966CAF7DAF8EAF9FAF2797D4
:101C80002BA13CA14DA15EA1CA01B9010E94C2399C
:101C90009B01AC0160E070E080E090E40E946A3655
:101CA0006B017C012BEA3AEA4AE25EE36BA17CA17C
:101CB0008DA19EA10E94C2394B015C0120E030E061
:101CC00040E850E4C701B6010E946B369B01AC01AD
:101CD000C501B4010E94C2396BAF7CAF8DAF9EAF1E
:101CE00020E030E040E05FE3C701B6010E94C23966
:101CF00023966CAF7DAF8EAF9FAF23971F8E2224AC
:101D00002394312CE9A5FAA52E163F0609F446CEF8
:101D1000BF8DBC3008F044C023962CAD3DAD4EAD18
:101D20005FAD23976B8D7C8D8D8D9E8D0E94C2390A
:101D30006B017C012BAD3CAD4DAD5EADC301B2017D
:101D40000E94C239A70196010E946B367B016C018B
:101D500023962CAD3DAD4EAD5FAD2397C301B201CF
:101D60000E94C2394B015C012BAD3CAD4DAD5EAD67
:101D70006B8D7C8D8D8D9E8D0E94C2399B01AC0137
:101D8000C501B4010E946A362B013C01EF8DEF5F63
:101D9000EF8F470156018B8E9C8EAD8EBE8E65C037
:101DA000B10180E090E00E9412382BA13CA14DA12E
:101DB0005EA10E94C2396B017C010E9465376B8F66
:101DC0007C8F8D8F9E8FC701B6010E94533A4B01C5
:101DD0005C01ADA5BEA5CD90DD90ED90FC90F7FA2D
:101DE000F094F7F8F094ADA9BEA98D919D910D9056
:101DF000BC91A02D8F8F98A3A9A3BAA32B8D3C8D46
:101E00004D8D5E8DC701B6010E94C2392B013C0188
:101E1000A50194016F8D78A189A19AA10E94C23970
:101E20009B01AC01C301B2010E946B362B013C0146
:101E3000A5019401C701B6010E94C2396B017C0162
:101E40002B8D3C8D4D8D5E8D6F8D78A189A19AA1D2
:101E50000E94C2399B01AC01C701B6010E946A36DB
:101E60006B8F7C8F8D8F9E8F1F8EA30192016FA52C
:101E700078A989A99AA90E946B36EFA1F8A5608379
:101E80007183828393832B8D3C8D4D8D5E8D6FA9E5
:101E900078AD89AD9AAD0E946B36ABA9BCA96D93A4
:101EA0007D938D939C93139727962CAD3DAD4EADAE
:101EB0005FAD2797F80160817181828193810E94D3
:101EC0006B36D8016D937D938D939C931397BE01D0
:101ED000635F7F4F88E991E00E94EF3580911B019D
:101EE00081116BC0BFEF2B1A3B0A0CCF8D89846028
:101EF0008D8B80911A01823009F45FC00E947D169B
:101F000080911B01811162C0FBA1F071FF2E109224
:101F10001F012BA123FB882780F90E948E1086B118
:101F2000807290910001891749F084E00E943D176A
:101F30000E94711580E00E948E1048C0B8018EEE9C
:101F400091E00E94EF3581E08093190182E00E94C8
:101F50004D170E94711580911B01811137C080912E
:101F60001A018111F6CF80911901813081F4FF208F
:101F700051F08CE0E1E0F1E0ADE0B1E001900D92D4
:101F80008A95E1F707C085E00E943D1703C081E014
:101F900080931F011092190180E00E948E100E9410
:101FA00071150E9416200E942B240E9486230E94F5
:101FB000403680911F01811188C08CE0EEEEF1E087
:101FC000A8E9B1E001900D928A95E1F78091C801EE
:101FD00080938701882309F47FC00E947D16809139
:101FE000870190911A01833041F49230D1F188E059
:101FF0000E944D170E94711534C081E080938001CA
:102000001092840110928301109281011092860136
:10201000109289011092880184E6809321018093B7
:10202000220180932301923091F064EA71E080E014
:102030000E9402268823E1F10E94173240E050E01E
:10204000BA0180E00E94EF2280E00E94C00283EA91
:1020500092E00E9477238AE392E00E9477230E9415
:10206000A329109287012FC081E036C082E034C0DE
:1020700088E132C086E230C089E12EC084E02CC005
:102080008BE12AC085E228C084E126C08EE124C00D
:102090008FE122C086E120C080E21EC082E21CC027
:1020A00083E21AC084E218C080E116C08FE014C039
:1020B00087E012C08CE0EEEEF1E0A8E9B1E001901B
:1020C0000D928A95E1F780E007C00E9413027ECF4F
:1020D0001A8E1BA20C940703C65BDF4F0FB6F89451
:1020E000DEBF0FBECDBFDF91CF911F910F91FF904B
:1020F000EF90DF90CF90BF90AF909F908F907F90A8
:102100006F905F904F903F902F9008950E941B24F6
:10211000892B19F082E00C944D170895109200015C
:102120009091700197FD03C090E290930001882385
:1021300031F09091000180E2892780930001089599
:102140008F929F92AF92BF92CF92DF92EF92FF92C7
:102150000F931F93CF93DF93CDB7DEB72D970FB6B5
:10216000F894DEBF0FBECDBF6B017C01042F20E0D1
:1021700030E0A9010E94603787FF07C08DE20E940E
:10218000FE27F7FAF094F7F8F094102F123060F071
:1021900020E030E048EC52E4C701B6010E94C239A9
:1021A0006B017C011250F2CF00FF0AC020E030E04A
:1021B00040E251E4C701B6010E94C2396B017C01C3
:1021C00020E030E040E05FE3C701B6010E946B36DB
:1021D0000E94DC3710E03AE0832E912CA12CB12C28
:1021E000611571058105910591F0EE24E394F12CC0
:1021F000EC0EFD1EE10EF11CA50194010E94EB3ACC
:10220000605DF7016083B901CA011F5FE9CF80E318
:10221000101748F4E1E0F0E0EC0FFD1FE10FF11DB5
:1022200080831F5FF5CF101314C011E0100F80E3FF
:10223000FE01E00FF11D81830CC0101303C08EE27C
:102240000E94FE27FE01E10FF11D80810E94FE2702
:1022500011501111F2CF2D960FB6F894DEBF0FBEBC
:10226000CDBFDF91CF911F910F91FF90EF90DF9045
:10227000CF90BF90AF909F908F9008952091700164
:1022800020FF08C02BE832E441E25DE30E94C2393E
:1022900041E001C040E00C94A0103F924F925F9249
:1022A0006F927F928F929F92AF92BF92CF92DF9266
:1022B000EF92FF920F931F93CF93DF93CDB7DEB7CB
:1022C000A4970FB6F894DEBF0FBECDBF10916E0578
:1022D000112391F181E080931A0189EA92E00E9432
:1022E0007723812F0E9451230E94372885EF91E0A8
:1022F000019739F0EFE9FFE03197F1F700C00000F6
:10230000F7CF1150123030F08FB7F89410926E055D
:102310008FBF12C083EA92E00E94772381E992E0A6
:102320000E9477230E94A32980E10E944317809195
:102330006D0584FFFCCFE8CF10916D05112309F4E2
:10234000B5C214FF04C081E080931B01B2C310FF2B
:10235000B7C18CE0E1E0F1E0DE01599601900D9209
:102360008A95E1F7BE01675E7F4FCE010D960E9410
:1023700056178CE30E94FE2780911A018830E1F005
:1023800058F4813099F1A8F0823099F1843009F045
:1023900043C084EF92E03EC0803229F118F48031CE
:1023A00071F03AC0803441F18038B1F58CED92E0A3
:1023B00031C087E093E02EC083E093E02BC0809192
:1023C0001C0187FD10C08DEF92E00E947723809161
:1023D0001C0180FF06C080E31AC082FF17C085FF82
:1023E000FACF81E314C089EF92E014C08EEE92E040
:1023F00011C088EE92E00EC082EE92E00E94772338
:1024000080911C0183FFE9CF83E301C082E30E9436
:10241000FE2702C00E94772380915F01F82FF170A0
:10242000BF2E80FD15C04090BC015090BD01609052
:10243000BE017090BF0144EA842E41E0942E9E01BB
:102440002F5F3F4F7901CE010D966C0100E02CC04B
:1024500080912601882339F385ED92E03FC0A301E6
:1024600092010E946B36F7016083718382839383AC
:10247000B110F2CFF7012081318142815381F60101
:1024800060817181828193810E946A36F601608346
:102490007183828393830F5FF4E0EF0EF11C24E0DD
:1024A000C20ED11C0330B1F0F401619171918191A0
:1024B00091914F0120853185428553850E946B366D
:1024C000F7016083718382839383023041F2BB20E2
:1024D00089F2E1CFB110C0CF8EEC92E00E94772359
:1024E000CE010D960E941A2880915F0181FF1FC0C6
:1024F00089EC92E00E94772390913C0580911B0229
:10250000981710F0815F01C08150891B0E945123F0
:102510008CE20E94FE278091AC069091AD06981740
:1025200010F0805801C08150891B0E94512384EC17
:1025300092E00E94772380911A018C7749F0609194
:10254000540570915505809156059091570503C02B
:1025500060E070E0CB010E943E118CE20E94FE27F9
:1025600060912701709128018091290190912A01A1
:1025700040E00E94A0100E94FE01F82E0E949E17CB
:10258000082F86B1982F907280910001E92EE826DD
:102590008F2D802B8E2959F18FEB92E00E947723AB
:1025A000EE2019F080E50E94FE27FF2079F0F0FE72
:1025B00003C088E50E94FE27F1FE03C089E50E9462
:1025C000FE27F2FE03C08AE50E94FE27002379F071
:1025D00000FF03C082E50E94FE2701FF03C088E4DC
:1025E0000E94FE2702FF03C083E50E94FE27809120
:1025F0002601882321F081508093260118C0809104
:102600001A018C7711F08DE101C089E080932601D9
:1026100080912501811103C081E08093250189EB20
:1026200092E00E947723CE0101960E941A288091A1
:102630002501882321F081508093250139C08091A4
:102640001A018C7711F083E101C089E080932501A4
:1026500084EB92E00E947723809121010E94512314
:102660008CE20E94FE27809122010E9451238CE27D
:102670000E94FE27809123010E94512305B105FB92
:10268000002700F9439B03C0FF24F39403C00023F9
:1026900079F0F12C80EB92E00E947723002319F06F
:1026A00083E50E94FE27FF2019F086E40E94FE27A2
:1026B0008EE30E94FE270E94372881E00E94431784
:1026C000812F887E09F469C080911A01982F937038
:1026D00009F052C08872A1F080911C01807C81F4C5
:1026E0000E948C1F82E080931E0180911A0180322B
:1026F00039F417FD05C080911C01806880931C018E
:1027000080911A01811103C091E090931C0116FF82
:1027100007C085FD05C090911C01906490931C0139
:1027200013FF05C0807E19F480E180931A0115FF24
:1027300023C083EA92E00E9477238FE492E00E9414
:1027400077230E94A32980911C0187FD10C09091DE
:102750001A01903439F483FF07C0837E826080932E
:102760001C0102C0903819F080E480931A01809116
:102770001C01806280931C0117FF0CC080911A011C
:10278000813029F480911C01856080931C0180E8D0
:1027900080931A0188EE0E94431711FF44C0812FD5
:1027A0008876F1F580911A01803471F480911C01D2
:1027B00085FD0AC084FF03C010921A0105C082FF84
:1027C00003C0886080931C0180911A01882381F0E6
:1027D00084FF26C090911C0190FF22C0803141F4FB
:1027E00080912401882321F088608093240118C0FF
:1027F00010921E010E941B24892B71F080911C01F4
:1028000086FD0AC010921C0188E080931A010E9484
:10281000E5170E94492004C010921C0110921A0171
:1028200082E00E94431712FF41C080911A01807D0F
:1028300090911C018823D9F080911D01811117C04E
:1028400097FD15C00E948C1F80911B0280931A0275
:102850000E943C2480911E0181FF05C090911C01C3
:10286000916090931C01897F80931E011CC097FF8B
:102870000AC010921E010E942B240E9416200E9462
:1028800013020E94862380911C0185FF08C08F7768
:10289000816080931C0180E480931A0104C010922F
:1028A0001C0110921A0184E00E94431790916F0559
:1028B000992309F4ABC08FB7F89410926F058FBFBE
:1028C0004091210190FF02C084E601C0842F91FD58
:1028D000865F92FD8A5093FD8F5F94FD8150893C05
:1028E00008F088EC8A3008F48AE03091220195FFE4
:1028F00002C024E601C0232F96FD22E397FD29E1C3
:10290000841303C0231709F481C08093210120930D
:1029100022011092250110911B0230903C0589E99B
:10292000D82E96E7E92E26E9F22E0EE732E3432E63
:10293000131509F457C0812E912C489CC001499C65
:10294000900D1124FC01E45EFD4F5F01CF010E9458
:10295000A823562E672E782EC92E2D2D3E2D4F2DB5
:10296000502F0E94823918164CF42D2D3E2D4F2DDC
:10297000502F6D2D7E2D8F2D902F08C0252D362D9B
:10298000472D5C2D652D762D872D9C2D0E94C239FB
:10299000F501668B778B808F918F489CC001499C95
:1029A000900D11249C01245E3D4F7901F90182A014
:1029B00093A0A4A0B5A0A501940166897789808D14
:1029C000918D0E94823918162CF4F701868A978A15
:1029D000A08EB18E1F5F103109F410E0D52C730169
:1029E0000C2DA6CF8D2D9E2DAF2DB02F80931202D2
:1029F00090931302A0931402B09315020E948C1FAF
:102A000080911B0280931A020E943C2490917005D1
:102A1000992309F448C08FB7F894109270058FBFBE
:102A20002091230190FF02C084E601C0822F91FD16
:102A3000865F92FD8A5093FD8F5F94FD8150893CA3
:102A400008F088EC8A3008F48AE0821749F0209177
:102A50001E01286020931E018093230110922501FE
:102A600080911A0195FF0DC0803159F42091240105
:102A7000211102C022E003C020FF03C02460209384
:102A80002401907C81F0882311F0887161F010910D
:102A9000880116FF02C01F7B01C01064812F0E94B5
:102AA000C0021093880180911A018C7F11F00E945E
:102AB000E517A4960FB6F894DEBF0FBECDBFDF9129
:102AC000CF911F910F91FF90EF90DF90CF90BF902B
:102AD000AF909F908F907F906F905F904F903F90BE
:102AE0000895CF92DF92EF92FF921F93CF93DF93DF
:102AF0000E944D1180911C01882309F4F6C00E94A8
:102B00001B24009771F4C091880180918901C82B22
:102B1000C0908B01D0908C01E0908D01F0908E01DF
:102B200006C0FC01C189C6A4D7A4E0A8F1A8809181
:102B3000700181FF03C080E20E942B17DC2FD0734D
:102B400011E0C07490911C01992309F4CEC08091CA
:102B50001B018111CAC090FFC5C080911A01282FA6
:102B6000207C09F474C092FD12C01092240140E050
:102B700050E0BA0180E00E94EF2280E00E94C00293
:102B800090911C019D7F946090931C01ABC0803894
:102B9000E1F483EA92E00E9477238CE092E00E94C5
:102BA00077230E94A32940E050E0BA0180E00E9410
:102BB000EF2280E00E94C0020E94E01F80911B0172
:102BC000811193C00E944D11F9CF803419F49F7D7B
:102BD00090931C0180911C0183FF84C09091890116
:102BE0009923C1F081FD16C08091700181FF06C05C
:102BF00080911E01886080931E010CC0B701A60160
:102C00008D2F0E94EF2241E060E070E080E890E4C8
:102C10000E94872580918801882371F080911C0192
:102C200081FD0AC08C2F0E94C00241E060E070E08C
:102C300080E89FE30E94872590911C0191FD52C07E
:102C4000906190931C0182E00E944D174BC09091BF
:102C500024019923C9F191FF0DC080918901882336
:102C6000B1F040E050E0BA0180E00E94EF22109302
:102C7000240138C09C70B1F18091890181110AC092
:102C80008091240183FF03C082E00E944D171092BF
:102C9000240128C083EA92E00E94772385E192E034
:102CA0000E9477230E94A3298091700181FF06C0B2
:102CB00080911E01886080931E01E2CFB701A601BA
:102CC0008D2F0E94EF22DCCF80911E0183FF0AC06E
:102CD000B701A6018D2F0E94EF2280911E01877FF0
:102CE00080931E010E944D112DCFDF91CF911F9136
:102CF000FF90EF90DF90CF9008950E9486100E9481
:102D0000711580911B01811108C00E941B24892B21
:102D1000B1F780911A01883091F3089520917001E4
:102D200020FF08C02BE832E441E25DE30E94C23993
:102D300044E001C043E00C94A01020E030E0A90181
:102D40000E94823918164CF460916C0170916D01EB
:102D500080916E0190916F0108C06091680170913F
:102D6000690180916A0190916B01609327017093D2
:102D700028018093290190932A012BEA3AEA4AE23A
:102D80005EE30E94C23920E030E040E151E40E945D
:102D90006B360E94E337862F0895CF93DF93C9E106
:102DA000D7E08991882319F00E94FE27FACFDF919E
:102DB000CF910895CF93DF9321E5829FC001112425
:102DC000EC01DD5F40E550E0BE0189E197E00E9443
:102DD0001902892B69F4109219070E947D1640E5AB
:102DE00050E069E177E0CE010E94810280E001C0FD
:102DF00081E0DF91CF910895CF93DF93C0E08C2FD6
:102E00000E94DA1681110EC0109219078EE30E94FB
:102E1000FE270E94CD168AE30E94FE2787E00E94CB
:102E20003B2812C080911907882371F00E94CD02BF
:102E3000D82F8EE30E94FE270E94CD168AE30E94BF
:102E4000FE278D2F0E944728C13011F0C1E0D7CF57
:102E5000DF91CF9108952FB7F89490917005892B49
:102E6000809370052FBF08952FB7F89490916F0548
:102E7000892B80936F052FBF08959FB7F894809397
:102E80006E059FBF08952FB7F89490916D058095BA
:102E9000892380936D052FBF08952FB7F8949091E3
:102EA0006D05892B80936D052FBF0895AF92BF925A
:102EB000CF92DF92EF92FF920F931F93CF93DF9306
:102EC00000D000D0CDB7DEB75B012BE2E22E21E0CF
:102ED000F22E8C016B018CE0C80ED11CF5016191C2
:102EE0007191819191915F01F7012191319141910E
:102EF00051917F0129833A834B835C830E9414386C
:102F000029813A814B815C810E946A37F801619383
:102F10007193819391938F01AC14BD04F9F60F90D6
:102F20000F900F900F90DF91CF911F910F91FF9015
:102F3000EF90DF90CF90BF90AF90089596B1892F1A
:102F4000877049F0892F8095817091FF826092FD92
:102F500003C08460089580E008951F920F920FB619
:102F60000F9211242F933F934F935F936F937F930F
:102F70008F939F93AF93BF93EF93FF930E949E17FE
:102F8000882391F080FF03C00E94B8250DC082FF06
:102F900004C080916D05826005C081FF05C08091ED
:102FA0006D05886080936D05FF91EF91BF91AF91A2
:102FB0009F918F917F916F915F914F913F912F9151
:102FC0000F900FBE0F901F9018952F923F924F9227
:102FD0005F926F927F928F929F92AF92BF92CF92A9
:102FE000DF92EF92FF920F931F93CF93DF93CDB7B2
:102FF000DEB7EE970FB6F894DEBF0FBECDBF80915F
:103000001E0180FD70C790919F058091A0059817C3
:1030100009F469C78091280690912906892B09F047
:103020003BC310911E0112FF09C080913C0522E3B1
:10303000289FC0011124845E9D4F02C00E941B2462
:103040009093290680932806209028063090290620
:103050002114310409F447C700913E05902F917067
:1030600000FF03C010923E05FEC080913D058F5FBA
:10307000853009F0982F90933D05E92EF12C32E12F
:103080003E9DF0013F9DF00D1124E253FA4FF09365
:10309000CD05E093CC05D10150968C915097808B53
:1030A0004D915D916D917C91DB01CA0123E0880F08
:1030B000991FAA1FBB1F2A95D1F780839183A283F2
:1030C000B383D10114964D915D916D917C911797C9
:1030D000DB01CA0133E0880F991FAA1FBB1F3A9575
:1030E000D1F784839583A683B783D10118964D9138
:1030F0005D916D917C911B97DB01CA0143E0880FC4
:10310000991FAA1FBB1F4A95D1F780879187A28775
:10311000B387D1011C964D915D916D917C911F9764
:10312000DB01CA0153E0880F991FAA1FBB1F5A95E4
:10313000D1F784879587A687B787F1016485758560
:10314000868597850E9412386093430570934405E5
:103150008093450590934605D1015E962D913D9152
:103160004D915C9191970E946A379B01AC016093ED
:103170004705709348058093490590934A0560E0A0
:1031800070E080EA9FE30E946A3760934B0570937A
:103190004C0580934D0590934E0510923F0510927B
:1031A0004005109241051092420511FD02C003FF37
:1031B0001DC060915C0570915D0580915E059091E8
:1031C0005F05609354057093550580935605909361
:1031D00057059B01AC010E94C239F101628B738BD0
:1031E000848B958B077F00933E0511C0D1015296C9
:1031F0006D917D918D919C9155970E94613A60935C
:103200005405709355058093560590935705B2E188
:10321000BE9DC001BF9D900D1124FC01E253FA4FE9
:103220007F01118A8091700181FF1DC0D1015196EB
:103230008C91519785FF17C09A962D913D914D9194
:103240005C919D9760E070E080E89FE30E946A37A0
:10325000609368057093690580936A0590936B0588
:1032600021E0F701218B1092500510925105109228
:10327000520510925305D1015A968D919D910D9052
:10328000BC91A02D89839A83AB83BC839C01AD0143
:1032900060E070E080E09FE30E946A374B015C01D0
:1032A000F101468C578C60A071A011FF4BC0F2E079
:1032B000F0934F05D1015296CD90DD90ED90FC90AA
:1032C0005597A70196010E94C2399B01AC01C30129
:1032D000B2010E946A364B015C0120E030E0A90196
:1032E0000E94603787FF1DC029813A814B815C8134
:1032F000CA01B9010E946B36A30192010E94C23932
:103300009B01AC01C701B6010E946A360E94613A76
:1033100060935C0570935D0580935E0590935F05F7
:10332000B8C18092500590925105A0925205B0927A
:10333000530510925C0510925D0510925E05109287
:103340005F05A7C110924F0540926005509261053C
:10335000609262057092630512FF0CC010925C05CA
:1033600010925D0510925E0510925F05C12CD12C64
:10337000760124C0E0911B02EF5FE03109F4E0E048
:1033800080913C05E81759F0B2E3BE9FF00111248B
:10339000E45EFD4FC288D388E488F58803C0C12C61
:1033A000D12C7601C701B6010E94613A60935C0599
:1033B00070935D0580935E0590935F05C1010E9447
:1033C000A823698B7A8B8B8B9C8B9B01AC010E9411
:1033D000C2396D837E838F839887D10152962D9158
:1033E0003D914D915C91559729873A874B875C8732
:1033F0009B01AC0169857A858B859C850E94823909
:1034000018160CF070C02D813E814F81588569855A
:103410007A858B859C850E946A369B01AC01C5012B
:10342000B4010E94C2399B01AC01C301B2010E94E8
:103430006A3660936005709361058093620590938E
:10344000630520E030E0A9010E94603718163CF1C6
:10345000B2E0B0934F0529813A814B815C81CA016A
:10346000B9010E946B36A30192010E94C2399B01EF
:10347000AC0169857A858B859C850E946A360E949D
:10348000613A60935C0570935D0580935E0590934F
:103490005F0580913E05886080933E05FAC0A701D4
:1034A00096016D817E818F8198850E946A369B018D
:1034B000AC01C501B4010E94C239609364057093E8
:1034C0006505809366059093670529893A894B893C
:1034D0005C89209358053093590540935A055093C1
:1034E0005B0533E0BBC0A701960169857A858B85B2
:1034F0009C850E946A369B01AC01C501B4010E9403
:10350000C2399B01AC01C301B2010E946B3620E0BD
:1035100030E040E05FE30E94C2396D877E878F878D
:10352000988B20E030E0A9010E94823918160CF037
:1035300098C0A30192016D857E858F8598890E9430
:10354000603787FF8AC0A70196016D817E818F81D8
:1035500098850E946A369B01AC01C501B4010E94A6
:10356000C2396093640570936505809366059093F6
:1035700067052D853E854F8558890E94603787FFF6
:103580003BC089899A89AB89BC89809358059093FF
:103590005905A0935A05B0935B052D813E814F815B
:1035A000588569857A858B859C850E946037811155
:1035B00004C091E090934F056CC029853A854B85F6
:1035C0005C856D817E818F8198850E946A369B0122
:1035D000AC01C501B4010E94C2399B01AC01C30119
:1035E000B2010E946A366093600570936105809312
:1035F0006205909363054DC02D853E854F855889A2
:1036000020936005309361054093620550936305F4
:1036100020936405309365054093660550936705D4
:1036200029813A814B815C81CA01B9010E946B36C4
:103630002D853E854F8558890E94C239A701960184
:103640000E946B360E94613A609358057093590549
:1036500080935A0590935B051CC032E030934F0570
:1036600018C01092600510926105109262051092C8
:10367000630580915C0590915D05A0915E05B09118
:103680005F058093580590935905A0935A05B09310
:103690005B05186010931E018091CB05482F50E008
:1036A0005A87498787E0849FF001859FF00D112498
:1036B000EF55FA4F80913D058483A0912806B09183
:1036C0002906BEAFADAF5E96BC91BEA3EDADFEAD1B
:1036D000F78DFFA3ADADBEAD9096BC91B8A7EDAD93
:1036E000FEADF1A1F9A720914B0530914C05409119
:1036F0004D0550914E056EA17FA18B2F9F2F0E94EB
:103700006A366AAB7BAB8CAB9DAB20E030E0A901A5
:103710000E94603787FF04C01AAA1BAA1CAA1DAA10
:10372000209160052D83309161053D8740916205B0
:10373000498B509163055D8B809158058A8F9091DC
:1037400059059B8FA0915A05AC8FB0915B05BD8F39
:10375000609054057090550540905605509057055F
:10376000E0916405EAA7F0916505FBA72091660545
:103770002CA7309167053DA740914F054983509193
:1037800050055EA7809151058FA79091520598AB87
:10379000A0915305A9ABB0915C05BEABE0915D056E
:1037A000EFABF0915E05F8AF20915F0529AF2EA039
:1037B0003FA008A519A58EE3C82E83ECD82E8EE273
:1037C000E82E89E3F82E1E8A1F8A188E198ECE8E57
:1037D000DF8EE8A2F9A29981913009F4E7C008F4DC
:1037E00074C0ADADBEAD5A962D913D914D915C9199
:1037F0005D97933009F009C1C701B6010E94C23933
:103800004B015C0120E030E040E05FE30E94C23900
:103810009B01AC01B301C2010E946A369B01AC015D
:10382000C701B6010E94C2396AA37BA38CA39DA3E2
:103830009B01AC01B101C8010E946A361B018C01D9
:103840002D813D8549895D890E94603787FD0BC0C8
:1038500020E030E0A9016AA17BA18CA19DA10E947A
:10386000603718165CF12D813D8549895D896EA10F
:103870007FA188A599A50E946A369B01AC010E9490
:103880006B366B017C012A8D3B8D4C8D5D8DB301B8
:10389000C2010E946B369B01AC01C701B6010E94B8
:1038A0006A376B017C016A8C7B8C4C8C5D8C2D8023
:1038B0003D8409891D89B1E0B98311C1A501940135
:1038C000B301C2010E946A366EC0EDADFEAD228D1D
:1038D000338D448D558DC701B6010E94C2394B010D
:1038E0005C0120E030E040E05FE30E94C2399B01D0
:1038F000AC01B301C2010E946B369B01AC01C70150
:10390000B6010E94C2399B01AC01B101C8010E94FD
:103910006A361B018C012D813D8549895D890E9494
:10392000603787FF3AC02D813D8549895D896EA149
:103930007FA188A599A50E946A369B01AC010E94CF
:103940006B366B017C012A8D3B8D4C8D5D8DB301F7
:10395000C2010E946B369B01AC01C701B6010E94F7
:103960006A376B017C012AA53BA54CA55DA56D813D
:103970007D8589899D890E946037811103C0F2E0AD
:10398000F98302C021E029836A8C7B8C4C8C5D8C8E
:103990002D803D8409891D89A2C0A5019401B30130
:1039A000C2010E946B363B012C0199C0A701960110
:1039B0006A8D7B8D8C8D9D8D0E94C2399B01AC01DF
:1039C000B101C8010E946A365B014C012AA53BA5E2
:1039D0004CA55DA50E94603787FF7FC02AA53BA547
:1039E0004CA55DA5B101C8010E946A362A8D3B8DA8
:1039F0004C8D5D8D0E946A376B017C012AA43BA42B
:103A00000CA51DA532E039836AC0C701B6010E942A
:103A1000C2394B015C019B01AC01B301C2010E94A0
:103A2000823918169CF520E030E040E05FE3C501E4
:103A3000B4010E94C2399B01AC01B301C2010E94D2
:103A40006A369B01AC01C701B6010E94C2399B01D5
:103A5000AC01B101C8010E946A366AA37AAF8BAF8C
:103A60009CAF2EA53FA548A959A90E9482391816D6
:103A70006CF4A5019401B301C2010E946A363B01B6
:103A80002C012AA03AAC0BAD1CAD29C02EA53FA538
:103A900048A959A9B101C8010E946A369B01AC012D
:103AA0000E946B366B017C012EA93FA948AD59AD30
:103AB000B301C2010E946B369B01AC01C701B60184
:103AC0000E946A376B017C016EA87FA848AC59AC94
:103AD0002EA43FA408A919A902C015018401A701B9
:103AE00096016E897F89888D998D0E946B366E8BC9
:103AF0007F8B888F998F2E8D3F8D48A159A10E9471
:103B0000603787FF09C02E893F89488D598D6E8D9A
:103B10007F8D88A199A131C02AA93BA94CA95DA993
:103B2000B101C8010E9482391816ACF0C301D2015C
:103B30008093540590935505A0935605B09357056F
:103B4000B981B0934F05E091CC05F091CD059189F5
:103B5000911134C02FC02EE333EC4EE259E36E8D49
:103B60007F8D88A199A10E946B366E8F7F8F88A36D
:103B700099A32E893F89488D598D0E946A366B0121
:103B80007C012EA53FA548A959A9B101C8010E94F1
:103B9000823918160CF41FCEC301D201809354054C
:103BA00090935505A0935605B0935705E981E0938E
:103BB0004F05C9CF80911E0183FF3FC0ADADBEADA3
:103BC00051968C915197807349F19E96CD90DD90DE
:103BD000ED90FC90D1979923D1F020916805309118
:103BE000690540916A0550916B056091540570918B
:103BF000550580915605909157050E94C2399B0149
:103C0000AC01C701B6010E94C2396B017C01C7013A
:103C1000B6010E949D1680936C050AC01092270180
:103C2000109228011092290110922A0110926C051D
:103C300080911E01877F80931E0127E0E985FA8528
:103C40002E9FA0012F9F500D1124CA018F559A4F0E
:103C50009E838D8380916C05AD81BE8116968C9379
:103C600020914705309148054091490550914A05FA
:103C7000B101C8010E94C2392B013C010E944937A1
:103C80006B017C016091430570914405809145056D
:103C9000909146050E9449374B015C01A7019601AE
:103CA0000E946A360E94E33769837A838B839C8300
:103CB00029813A81ED81FE8131832083232B41F4D8
:103CC00080911E0181FF04C0816080931E010BC1A1
:103CD00020913F05309140054091410550914205AA
:103CE0006E897F89888D998D0E946B366D837E8366
:103CF0008F839887A3019201C501B4010E946A369F
:103D00009B01AC016D817E818F8198850E946A370D
:103D10004B015C0120EC31EE44E65EE40E94C239C6
:103D20000E9449370E94E337603D57E075078105DF
:103D3000910560F427E0A985BA852A9FF0012B9FA1
:103D4000F00D1124EF55FA4F158254C0603A3FE050
:103D500073078105910568F4A7E049855A85A49FFA
:103D6000F001A59FF00D1124EF55FA4FB1E0B58396
:103D70001FC06034EFE17E078105910568F447E0DC
:103D800029853A85429FF001439FF00D1124EF559C
:103D9000FA4F52E055830CC027E0A985BA852A9FC7
:103DA000F0012B9FF00D1124EF55FA4F33E03583CE
:103DB000A7E049855A85A49FF001A59FF00D112425
:103DC000EF55FA4F2581022E04C096958795779579
:103DD00067950A94D2F749815A8102C0440F551F52
:103DE0002A95E2F7518340836115710551E08507FB
:103DF000910568F427E0A985BA852A9FF0012B9FD9
:103E0000F00D1124EF55FA4F7383628304C04FEF16
:103E10005FEF538342838091A0058093CB058F5F32
:103E2000863019F08093A00502C01092A005E091A1
:103E30002806F0912906C101D801868F978FA0A38B
:103E4000B1A3C0924305D0924405E0924505F0929B
:103E50004605A3019201C701B6010E946A36A50179
:103E600094010E94C23960933F057093400580938E
:103E700041059093420520915005309151054091A4
:103E8000520550915305B101C8010E94603781115C
:103E9000BAC820E030E0A901B101C8010E9482390E
:103EA00090911E01181614F092FF04C09160909337
:103EB0001E0119C0109229061092280690911B022B
:103EC00080913C05891709F49EC881E0890F8031F3
:103ED00009F480E020911A02921302C080931A0222
:103EE00080931B0290C8EE960FB6F894DEBF0FBE0B
:103EF000CDBFDF91CF911F910F91FF90EF90DF9099
:103F0000CF90BF90AF909F908F907F906F905F9079
:103F10004F903F902F900895CF93DF93C091280644
:103F2000D09129062097C9F080913E058160809349
:103F30003E0560915405709155058091560590910C
:103F400057059B01AC010E94C2396A8B7B8B8C8B1D
:103F50009D8B1092290610922806DF91CF9108952B
:103F600080915C01682F90E020915D01422F80FDDF
:103F700094E0822F817020FD80E261FD986041FD18
:103F8000806462FD906142FD806890937905809322
:103F90007A0508951F920F920FB60F9211248F93F6
:103FA0009F938BB1909179059C71837E892B8BB9FE
:103FB00015BC9F918F910F900FBE0F901F90189579
:103FC00080916F008D7F80936F0080918100887F4A
:103FD00081608093810010927B0580915E019091B9
:103FE0001A018F3F39F420916E05211103C09038DA
:103FF00081F402C0943069F090E0009741F0EFE95D
:10400000FFE03197F1F700C000000197F6CF81E0A3
:1040100001C080E09091700192FF02C091E0892779
:10402000882311F0289A089528980895CF93DF9354
:104030000E94E01F80E3EDE3F5E0DF011D928A9529
:10404000E9F7CCE7D5E083E2FE0111928A95E9F722
:10405000109229061092280610929F051092CB0507
:1040600081E08093A00510927B050E94B01F809193
:104070007A058F878BB1837E90917905892B8BB9D7
:104080008BB18F7190917A05892B8BB9DF91CF918C
:1040900008958091700182FF02C0289A01C028987B
:1040A0008091790580938A0580915B01880F845007
:1040B00081958093890580916F00826080936F0065
:1040C00008956091750570917605809177059091BE
:1040D00078050E94E3376093B3008091B000806858
:1040E0008093B0008091180290911902019789F095
:1040F00081E090E090931902809318028091B000C3
:1041000080688093B00080E395E7909317028093D6
:1041100016022D9808958093B300811102C00C946B
:1041200061208091B00080688093B0002D9A8091CA
:10413000180290911902029761F082E090E090934A
:1041400019028093180280E395E7909317028093F9
:10415000160208951F920F920FB60F9211242F93FB
:104160003F934F935F936F937F938F939F93AF93FF
:10417000BF93EF93FF9380917B0581111FC28BB199
:1041800090918B05907E8F71892B8BB98BB1837E3B
:1041900090918A05892B8BB98091890586BD82E033
:1041A00085BD81E080937B05789480919D059091F9
:1041B0009E05892B09F0BCC080919F059091CB058D
:1041C000981709F4A4C0E0919F052E2F30E087E0F6
:1041D000E89FF0011124EF55FA4FF0939E05E0930C
:1041E0009D058281938190938900809388008081CE
:1041F00091819093990580939805E48180919A0527
:104200008E1761F1E0939A0582E1E89FF001112495
:10421000E253FA4FF0939C05E0939B0584859585C6
:10422000A685B785B695A7959795879580938405BC
:1042300090938505A0938605B093870580938005AC
:1042400090938105A0938205B093830580937C05AC
:1042500090937D05A0937E05B0937F05A0919B056B
:10426000B0919C0590917A0550968C915097892732
:1042700080938B0587E0829FF001839FF00D1124CE
:10428000EF55FA4F25814D915D916D917C9113977A
:10429000022E04C076956795579547950A94D2F7F4
:1042A00040938C0550938D0560938E0570938F0518
:1042B00014964D915D916D917C911797022E04C0DB
:1042C00076956795579547950A94D2F74093900550
:1042D00050939105609392057093930518968D9174
:1042E0009D910D90BC91A02D04C0B695A795979572
:1042F00087952A95D2F78093940590939505A0937E
:104300009605B093970586810E948B2011C00E946C
:10431000E01FE0919B05F0919C058189882321F0A5
:104320001092B3000E94612084E00E944D1746C1A4
:10433000809119018130B1F486B1807290910001B1
:10434000891781F0109219018CE0E1E0F1E0ADE015
:10435000B1E001900D928A95E1F780916D0580643E
:1043600080936D0510928A0540918C0550918D05C2
:1043700060918E0570918F0580917C0590917D05EF
:10438000A0917E05B0917F05840F951FA61FB71FD2
:1043900080937C0590937D05A0937E05B0937F0567
:1043A000E0919B05F0919C05448555856685778550
:1043B000481759076A077B0768F524E020938A05A8
:1043C0004485558566857785841B950BA60BB70BB1
:1043D00080937C0590937D05A0937E05B0937F0527
:1043E00020898091010190910201A0910301B09177
:1043F000040125FF04C00197A109B10903C001967A
:10440000A11DB11D8093010190930201A0930301AE
:10441000B0930401409190055091910560919205EF
:10442000709193058091800590918105A0918205FE
:10443000B0918305840F951FA61FB71F8093800539
:1044400090938105A0938205B0938305448555859B
:1044500066857785481759076A077B0778F52091A5
:104460008A05286020938A05448555856685778569
:10447000841B950BA60BB70B809380059093810549
:10448000A0938205B09383052089809105019091C6
:104490000601A0910701B091080126FF04C0019711
:1044A000A109B10903C00196A11DB11D80930501A9
:1044B00090930601A0930701B093080140919405E1
:1044C00050919505609196057091970580918405AE
:1044D00090918505A0918605B0918705840F951F61
:1044E000A61FB71F8093840590938505A09386052A
:1044F000B0938705448555856685778548175907A4
:104500006A077B0778F520918A05206120938A0548
:104510004485558566857785841B950BA60BB70B5F
:104520008093840590938505A0938605B0938705B5
:1045300020898091090190910A01A0910B01B0910D
:104540000C0127FF04C00197A109B10903C001961E
:10455000A11DB11D8093090190930A01A0930B0145
:10456000B0930C0180911A01843039F490912001AC
:1045700080918A05892380938A058091980590917E
:10458000990501979093990580939805892B69F473
:1045900010929E0510929D0580919F058F5F8093DC
:1045A0009F05863011F410929F05909179058091B6
:1045B0008A05892780938A0510927B05FF91EF91E8
:1045C000BF91AF919F918F917F916F915F914F912B
:1045D0003F912F910F900FBE0F901F9018959091C3
:1045E0001B0191111EC081110BC010922701109266
:1045F00028011092290110922A010E9461200FC007
:104600009091700191FF05C0803219F440E050E0B4
:10461000BA01CB01BA010E949D160E948B20109214
:1046200025010895239A83E08093B00087E080936A
:10463000B100259A20916C0130916D0140916E017D
:1046400050916F01609168017091690180916A01D8
:1046500090916B010E946A369B01AC0160E070E0B2
:1046600080EF91E40E946A37609371057093720540
:10467000809373059093740560E070E0CB010E9415
:104680009D16682F70E080E090E00E9412386093E1
:1046900075057093760580937705909378050C9453
:1046A0006120CF93DF93843630F06AE00E94CB3AEA
:1046B000C0E3C90F03C0C0E08A3030F06AE00E9456
:1046C000CB3AD0E3D90F01C0D0E0805D0E94FE2735
:1046D000DD2319F08D2F0E94FE27CC2329F08C2F8B
:1046E000DF91CF910C94FE27DF91CF910895CF9366
:1046F000DF93FC018491EF012196882321F00E9431
:10470000FE27FE01F7CFDF91CF910895EAEFF1E0A8
:10471000A1E0B1E04D915D916D917C911397408343
:1047200051836283738314964D915D916D917C9159
:104730001797448355836683778318968D919D914F
:104740000D90BC91A02D80879187A287B387089593
:10475000BF92CF92DF92EF92FF920F931F93CF936E
:10476000DF937C01FC0102A513A5D4A5C5A5818911
:1047700080FF18C06091220170E080E090E00E940C
:1047800014382AE037ED43E25CE30E94C2399B0112
:10479000AC01B8018D2F9C2F0E94C2398B01D82FFC
:1047A000C92F2DC082FD17C06091210170E080E00B
:1047B00090E00E9414382AE037ED43E25CE30E9467
:1047C000C2399B01AC01B8018D2F9C2F0E94C239C8
:1047D0008B01D82FC92FF701B6A0C7A0D0A4F1A490
:1047E0002B2D3C2D4D2D5F2DB8018D2F9C2F0E9420
:1047F0008239181624F40B2D1C2DDD2DCF2D20E031
:1048000030E040E85FE3B8018D2F9C2F0E94823991
:10481000181624F000E010E0D0E8CFE3B8018D2FA7
:104820009C2FDF91CF911F910F91FF90EF90DF9020
:10483000CF90BF90089580911B0290913C059817EE
:1048400039F022E3829FC0011124845E9D4F0895B8
:1048500080E090E008958CE1EAEFF1E0DF011D9245
:104860008A95E9F710921B0210923C0581E0809333
:104870002A0610921A0208952F923F924F925F9249
:104880006F927F928F929F92AF92BF92CF92DF9260
:10489000EF92FF920F931F93CF93DF93C0913C054C
:1048A000C11101C0C0E1C150D0911A02CD1709F465
:1048B0001BC1EC2EF12C22E3C29F80011124045E67
:1048C0001D4FF801A688B788C08CD18C628D738D7E
:1048D000848D958D9B01AC010E946B36F801268D6D
:1048E000378D40A151A10E94C2394B018C019B011F
:1048F000AC01B501C6010E94603787FD02C05401BA
:10490000680182E38E9DF0018F9DF00D1124E45E1D
:10491000FD4FC501D601828B938BA48BB58BC11142
:1049200001C0C0E1C150CD1761F022E32E9DC0014E
:104930002F9D900D11249C01245E3D4F7901D2E3FF
:1049400033C080911B02D8135EC00E948C1F5BC0D5
:10495000AC2EB12CDA9DC001DB9D900D1124FC0121
:10496000E45EFD4F6F01C11101C0C0E1C1508091F3
:104970001B02C81302C00E948C1FDA9D8001DB9DC0
:10498000100D1124045E1D4FF80186889788A08CB5
:10499000B18CA501940162897389848995890E94EB
:1049A0006037811106C0760180911A02C813D0CFFA
:1049B0002AC0F801628D738D848D958D9B01AC01A9
:1049C0000E946B36F801268D378D40A151A10E94BF
:1049D000C239F70122893389448955890E946B368F
:1049E0002B013C01A50194010E946037F80187FF6B
:1049F00005C0428A538A648A758AD5CF828A938A8F
:104A0000A48AB58AD0CFD0911A02F2E3DF9F800149
:104A10001124045E1D4FC1E0CD0FC03109F4C0E088
:104A200020903C0582E3382EC21509F45BC0CC2EE1
:104A3000D12C3C9CC0013D9C900D11249C01245E16
:104A40003D4F7901F8014288538864887588F901DF
:104A500082889388A488B588A5019401C301B20116
:104A60000E94603787FF24C0F801628D738D848DAA
:104A7000958D9B01AC010E946B36F801268D378D18
:104A800040A151A10E94C2399B01AC01C301B201F6
:104A90000E946B362B013C01A50194010E946037F6
:104AA00087FF06C0F701428A538A648A758ADC2F21
:104AB0003C9CF0013D9CF00D1124E45EFD4F2689E5
:104AC0003789408D518D62897389848995890E94C7
:104AD0006037811101C0DC2FCF5FC03109F4C0E025
:104AE0008701A2CFD0931A02DF91CF911F910F912E
:104AF000FF90EF90DF90CF90BF90AF909F908F90FE
:104B00007F906F905F904F903F902F9008950F93FC
:104B10001F93CF93C42F20E030E040EA51E40E947D
:104B2000C2390E9449370E94E3378B0101151105F4
:104B3000D9F080911B01811117C0C11103C00E94DF
:104B4000711506C00E944D1180911C0181FD0CC0A1
:104B50002FEF80E792E0215080409040E1F700C0C5
:104B6000000001501109E2CFCF911F910F910895DC
:104B700080916D0584FD1CC080E10E944D170E944C
:104B80006120439890911A01892F8C7221F48091B1
:104B90001E01867069F0943031F480916E058111A8
:104BA00005C086E001C083E00E943D170C94E01F21
:104BB00008956AE080E090E00E945F0245E550E0E1
:104BC0006BE271E081E090E00C948102CF93DF937F
:104BD00000D01F92CDB7DEB76A837B8389830E94A2
:104BE0007D1689812DE0829FC00111244CE050E0A8
:104BF0006A817B819E5F0F900F900F90DF91CF9124
:104C00000C9481021F93CF93DF93182FEB018DE05B
:104C1000189FB00111247E5F4CE050E0CE010E944D
:104C20001902892B59F48CE0FE0111928A95E9F75B
:104C3000BE01812F0E94E62580E001C081E0DF9166
:104C4000CF911F910895EF92FF920F931F93CF93EF
:104C5000DF93CDB7DEB72C970FB6F894DEBF0FBE4B
:104C6000CDBF182F80FFDDC08AE080935B018FEFFE
:104C700080935E0110925C0110925D0181E080934F
:104C80005F018AE097EDA3E2BCE38093600190931B
:104C90006101A0936201B09363018FE692E1A3E00A
:104CA000BBE38093640190936501A0936601B09388
:104CB000670180E090E0A8E4B2E4809368019093FB
:104CC0006901A0936A01B0936B0110926C0110927C
:104CD0006D0110926E0110926F011092710180E0CF
:104CE00090E0A8ECB1E48093720190937301A093DB
:104CF0007401B093750180E090E0AAEFB3E4809373
:104D0000760190937701A0937801B09379012AEF0F
:104D100030E030937B0120937A0140E050E060E87E
:104D20007FE340937C0150937D0160937E017093FB
:104D30007F011092700140E050E060EA72E440931D
:104D40002B0150932C0160932D0170932E01409301
:104D50002F0150933001609331017093320140E094
:104D600050E06AE773E44093330150933401609359
:104D700035017093360140E050E06AE775E44093F6
:104D80003701509338016093390170933A01409391
:104D90003B0150933C0160933D0170933E01809331
:104DA0003F0190934001A0934101B093420180E8FC
:104DB0009BECA4E2BBE48093430190934401A09355
:104DC0004501B09346018093470190934801A09319
:104DD0004901B0934A0180934B0190934C01A093F9
:104DE0004D01B0934E0180E090E0A8E4B3EC8093D5
:104DF0004F0190935001A0935101B09352018093C1
:104E0000530190935401A0935501B09356018093A0
:104E1000570190935801A0935901B0935A010E94F1
:104E2000D92511FF10C0CE0101967C018CE0F7015D
:104E300011928A95E9F700E0B701802F0E94E625DC
:104E40000F5F0830C9F712FF14C060E080E093E004
:104E50000E945F0260E081E093E00E945F0260E0F8
:104E600081E593E00E945F0260E082E593E00E94AA
:104E70005F0213FF0AC060E08EEA93E00E945F02C7
:104E800060E08FEA93E00E945F022C960FB6F894E0
:104E9000DEBF0FBECDBFDF91CF911F910F91FF906D
:104EA000EF9008951F920F920FB60F9211242F9337
:104EB0003F934F935F936F937F938F939F93AF93A2
:104EC000BF93EF93FF93E091C600E13271F028F4B5
:104ED000E83179F40E94B82556C0EF3321F0EE375F
:104EE00041F482E003C081E001C088E00E944D17D8
:104EF0004AC0E7FF37C08E2F90E0FC01E458F1096B
:104F0000ED31F10508F03FC0E659FF4F0C940D3B21
:104F100080E2ECCF80911A0185FF35C080E4E6CFB6
:104F200081E00DC082E00BC084E009C088E007C0CA
:104F300080E105C080E203C080E401C080E80E94F7
:104F4000341721C081E00BC082E009C084E007C0B3
:104F500088E005C080E103C080E201C080E40E94D7
:104F60002B1711C0A091AD0681E08A0F813809F49A
:104F700080E09091AC06891731F0B0E0A55DB94FA3
:104F8000EC938093AD06FF91EF91BF91AF919F910C
:104F90008F917F916F915F914F913F912F910F90E2
:104FA0000FBE0F901F9018951F920F920FB60F9281
:104FB00011248F939F93EF93FF9380911807E82F0D
:104FC000F0E0E155F94F90819093C6008F5F8936EC
:104FD00009F480E0809318079091AE06891305C00C
:104FE0008091C1008F7D8093C100FF91EF919F91CF
:104FF0008F910F900FBE0F901F901895E091AE0605
:1050000091E09E0F993631F490E004C020916D0537
:1050100024FD0FC0209118079217C1F3F0E0E1556D
:10502000F94F80839093AE068091C1008062809397
:10503000C1000895CF93DF93EC01688179818A8163
:105040009B810E948E168CE20E94FE276C817D81DE
:105050008E819F810E948E168CE20E94FE276885B9
:1050600079858A859B85DF91CF910C948E1681E19D
:1050700093E00C947723CF93C82F8AE193E00E94AA
:1050800077238C2F0E945123CF910C9437288111C4
:1050900004C08CE093E00C9477230C943B28CF92CF
:1050A000DF92EF92FF921F93CF93DF931F92CDB7C2
:1050B000DEB7182F6A017B0184E229830E94FE2754
:1050C000812F0E9451238DE30E94FE272981422FC8
:1050D000C701B6010E94A0100F90DF91CF911F91E0
:1050E000FF90EF90DF90CF900C9437281F93CF93D1
:1050F000DF931F92CDB7DEB7182F84E269830E9439
:10510000FE27812F0E9451238DE30E94FE27698193
:10511000862F0E9451230F90DF91CF911F910C9405
:105120003728EF92FF920F931F93CF93DF936091F5
:105130005B0170E080E00E94762860915E0170E083
:1051400081E00E94762860915C0170E082E00E941C
:10515000762860915D0170E083E00E94762860917E
:10516000700162FB662760F970E084E00E94762897
:105170006091700166FB662760F970E085E00E942F
:10518000762880917001082E000C990B692F661FFC
:105190006627661F70E086E00E94762860915F01B6
:1051A00070E08AE00E947628409160015091610190
:1051B000609162017091630123E08BE00E944F28AF
:1051C00040916401509165016091660170916701A1
:1051D00023E08CE00E944F2860917001617070E0C4
:1051E0008DE00E9476286091700165FB662760F96A
:1051F00070E084E10E9476286091700163FB66276D
:1052000060F970E085E10E947628609170016295F6
:10521000617070E086E10E9476286091710170E013
:1052200087E10E947628409172015091730160914C
:1052300074017091750123E088E10E944F2840912C
:10524000760150917701609178017091790123E0A6
:1052500089E10E944F2860917A0170917B018AE177
:105260000E94762840917C0150917D0160917E01E1
:1052700070917F0123E08BE10E944F2840916801EB
:105280005091690160916A0170916B0120E08EE19B
:105290000E944F2840916C0150916D0160916E0108
:1052A00070916F0120E08FE10E944F2860917001A2
:1052B0006695617070E080E20E947628D4E6F12C59
:1052C0000BE211E083E0E82EED0ECD2F82E0F81620
:1052D00091F0E3E0FE16E9F0F1E0FF1631F0F8019D
:1052E00040815181628173811AC0F80144855585DE
:1052F0006685778514C020E030E041E655E4F8018A
:10530000608D718D828D938D0E946A37AB01BC01D7
:1053100006C0F80144A155A166A177A1705823E009
:105320008C2F0E944F280C5F1F4FCF5FCE11CECF26
:10533000D65FF394DC3821F6DF91CF911F910F9166
:10534000FF90EF9008958DE50E94FE270C9437287A
:105350008F929F92AF92BF92CF92DF92EF92FF9285
:105360000F931F93CF93DF937C016B01DC01EC91D2
:10537000F0E0E75EF84F9081EF019D3221F4229634
:10538000918101E007C09B3211F0219602C0229664
:10539000918100E0912CF0E010E020E030E0A901E4
:1053A0005E01E0EDE90FEA30D0F4FF5FF93098F4E8
:1053B00091101150A5E0B0E00E94133BDC01CB013D
:1053C000880F991FAA1FBB1F9C01AD012E0F311D15
:1053D000411D511D0AC0911008C01F5F06C0EE3F5D
:1053E00041F4911006C0992493942196D5019C9183
:1053F000D7CFFF2309F44FC0CA01B9010E94123868
:105400004B015C0120E030E0A9010E946037882355
:1054100049F11F3F64F42AE037ED43E25CE3C50144
:10542000B4010E94C2394B015C011E5FF2CF1F3FE5
:1054300059F42DEC3CEC4CEC5DE3C501B4010E9449
:10544000C2394B015C010EC0112361F020E030E055
:1054500040E251E4C501B4010E94C2394B015C0134
:105460001150F2CF002351F0B7FAB094B7F8B094CE
:10547000F60180829182A282B38206C0D6018D920B
:105480009D92AD92BC921397C951D740C150F7017C
:10549000C08381E001C080E0DF91CF911F910F9127
:1054A000FF90EF90DF90CF90BF90AF909F908F9044
:1054B00008952F923F924F925F926F927F928F92B8
:1054C0009F92AF92BF92CF92DF92EF92FF920F9393
:1054D0001F93CF93DF93CDB7DEB7A1970FB6F894A4
:1054E000DEBF0FBECDBF90911B019111C3C18D8F47
:1054F0003E012DE0620E711C89E0D3011D928A9558
:10550000E9F786E08D8B2FE4A22E21E0B22EFE017A
:1055100076964F0100E010E0C12CD12C76013D8D34
:10552000232F30E03C8F2B8F902F0115110521F098
:10553000013021F080E103C084E001C088E0D401A3
:105540008D934D01EB8DFC8D02C0F595E7959A95F5
:10555000E2F7E0FF17C020E030E040EC5FEBD50160
:105560006D917D918D919C910E94C2391B012C01FE
:105570009B01AC01C701B6010E948239181614F0D4
:10558000610172010F5F1F4FB4E0AB0EB11C03301D
:10559000110551F620907601309077014090780106
:1055A0005090790194E0A92EBB24B39461E071E09E
:1055B000CE0101960E94561780917101882E912C80
:1055C000FE01319621E031E03A8F298F890120E0F8
:1055D00030E060E070E0D701C601B0588E8F9F8F39
:1055E000A8A3B9A34B8D5C8D022E02C0559547959B
:1055F0000A94E2F740FF2BC06F5FD8011D921D9205
:105600001D921C921397A401022E02C05595479536
:105610000A94E2F740FF03C0BB2019F007C0BB208B
:1056200029F0C082D182E282F38208C08E8D9F8DE4
:10563000A8A1B9A180839183A283B38346E150E0FE
:105640004C0F5D1F420F531FDA014C91742B2F5FDB
:105650003F4F34960C5F1F4F2330310519F6172F3B
:1056600070E080E090E00E9412380E94613A9B0155
:10567000AC0110932001C201B1010E94C2396D87B3
:105680007E878F87988BB301CE0101960E941633D7
:10569000B4E0B0931E010E94E5170E944920BB2090
:1056A000E9F00E94FE01FE01769620E030E090E0F5
:1056B0006191462F412359F0AC01022E02C055954D
:1056C00047950A94E2F740FF02C0609516232F5FCA
:1056D0003F4F2330310561F7109320010E94E517F9
:1056E00080916D05847339F110916D0514FF03C02D
:1056F00086E00E943D1715FF03C087E00E943D171A
:10570000B11007C00E94FE01ED8D8E2339F088E0B4
:1057100003C012FF03C089E00E943D1780916E050F
:10572000882329F00E94B8250E947115A3C084E047
:105730000E94431704C0812F8C7109F0B0CF0E94E2
:10574000162000917A0110917B010115110549F095
:105750008FE99FE00197F1F700C0000001501109A7
:10576000F4CF91E0B926C9F020E030E040EA50E4FF
:1057700060917C0170917D0180917E0190917F010B
:105780000E94C2396B017C0120907201309073013C
:10579000409074015090750110C0C0907C01D09071
:1057A0007D01E0907E01F0907F01209076013090A5
:1057B00077014090780150907901AA94A110F6CE1B
:1057C000C0907101D12C80907C0190907D01A090BF
:1057D0007E01B0907F012401350177FA709477F84B
:1057E00070948BE2E82E81E0F82E8B8D9C8D002E3C
:1057F00002C0959587950A94E2F780FF2AC0C601FA
:10580000002E02C0959587950A94E2F7D70180FF94
:1058100010C094962D913D914D915C919797C50143
:10582000B4010E946B36F70120813181428153819E
:1058300006C02D913D914D915C91C301B2010E9432
:10584000C2390E948F39E98DFA8D6083718382831A
:1058500093830F5F1F4F298D3A8D2C5F3F4F3A8FF7
:10586000298F34E0E30EF11C0330110509F0BDCFA0
:1058700010921E01A1960FB6F894DEBF0FBECDBFE9
:10588000DF91CF911F910F91FF90EF90DF90CF901C
:10589000BF90AF909F908F907F906F905F904F9050
:1058A0003F902F900895CF93DF93CDB7DEB76297E7
:1058B0000FB6F894DEBF0FBECDBF8091C0008260EE
:1058C0008093C0001092C50080E18093C400809155
:1058D000C10088698093C10080E090E00E94C70108
:1058E0008A3009F060C545E550E061E070E08BE288
:1058F00091E00E941902892B09F455C58AB18C6187
:105900008AB9209A8AB1806E8AB9809181008F7E8F
:1059100080938100809181008860809381008091D4
:1059200080008C7F80938000809180008F708093B6
:10593000800080916E00887F80936E0014BC15BC3F
:1059400080916E00816080936E0087B1887F87B9F7
:1059500088B1876088B980916C00876080936C0003
:10596000809168008260809368008CE0E1E0F1E063
:10597000DF011D928A95E9F7789410921A018091BF
:10598000700184FF03C081E080931A01ADE0CA2E4C
:10599000A1E0DA2EB2E0EB2E80911A0191E1EAE16A
:1059A000F1E011929A95E9F780931A0184E68093C9
:1059B000210180932201809323018CE0D6011D9266
:1059C0008A95E9F71092190110926D0510926E05F3
:1059D00010926F05109270058091AD068093AC0611
:1059E00080E4E0E8F1E011928A95E9F764EA71E079
:1059F00080E00E940226811103C087E00E943B28BC
:105A00000E9412233B9A43980E94B0013D98459A08
:105A100080E00E948E100E942B240E9416200E947B
:105A200086230E9413028AE591E00E9477238091E9
:105A3000700183FF11C00E94FE01882369F081E09C
:105A400080931A0183EA92E00E94772382E492E035
:105A50000E9477230E94A32980911A018178A1F0E6
:105A600083EA92E00E9477238DE792E00E947723F9
:105A70000E94A32981E080931A0110E000E0E3E096
:105A80002E2EF4E03F2E29C010921A010E94FC161F
:105A9000F4CFE92FF0E0E55DF94F80819F5F913809
:105AA00009F490E09093AC068F3FE9F08A3039F525
:105AB0000E94711580911B0181116ECFE12FF0E0E2
:105AC000E75EF84F1082F02FF170FF2E00FF1BC031
:105AD0008BE00E943B2810E000E09091AC068091A2
